:020000041000EA
:1000000000B5324B212058609868022188439860DF
:10001000D860186158612E4B002199600221596106
:100020000121F02299502B49196001219960352056
:1000300000F044F80222904214D00621196600F024
:1000400034F8196E01211966002018661A6600F04E
:100050002CF8196E196E196E052000F02FF8012189
:100060000842F9D1002199601B49196000215960AB
:100070001A491B48016001219960EB211966A021F2
:10008000196600F012F800219960164914480160C1
:100090000121996001BC002800D000471248134993
:1000A000086003C880F30888084703B5996A0420EC
:1000B0000142FBD001200142F8D103BD02B5186610
:1000C0001866FFF7F2FF186E186E02BD00000240BE
:1000D000000000180000070000035F00212200005C
:1000E000F4000018222000A00001001008ED00E03C
:1000F00000000000000000000000000074B24E7A12
:1001000000200420F7010010C3010010C5010010F9
:10011000C1010010C1010010C1010010C101001097
:10012000C1010010C1010010C1010010C701001081
:10013000C1010010C1010010C9010010CB01001065
:10014000CD010010CD010010CD010010CD01001037
:10015000CD010010CD010010CD010010CD01001027
:10016000CD010010CD010010CD010010CD01001017
:10017000CD010010CD010010CD010010CD01001007
:10018000CD010010CD010010CD010010CD010010F7
:10019000CD010010CD010010CD010010CD010010E7
:1001A000CD010010CD010010CD010010CD010010D7
:1001B000CD010010CD010010CD010010CD010010C7
:1001C00000BE00BE00BE00BE00BE00BE00F051F882
:1001D000103800BEF2EB8871B8720310DC720310A5
:1001E0003402001090A31AE700202449086006C8D2
:1001F00081F30888104722480068002835D10DA4F3
:100200000ECC002902D000F012F8F9E71D491E4A71
:10021000002000E001C19142FCD11C4988471C49E3
:1002200088471C49884700BEFDE701C901C29A42C0
:10023000FBD37047DC720310C0000020A8A400208C
:10024000C4160410B0A40020F8B70020182A041027
:100250000000042000000420182A041000100420CC
:10026000001004200000000070470B4800F018F850
:100270000047EFF30580C0B27047000008ED00E0D2
:10028000000000D008B80020B4CE0020191B0020C8
:100290000D010020091C002057560000000000003E
:1002A00001B40248844601BC604700BF713600209B
:1002B00006005250ABB36053E0AB00200600525032
:1002C000861C0302F0AB0020060052505422A29D6F
:1002D00000AC002005005250DE65F468182A0410B6
:1002E000000000006514000091130000911300004D
:1002F000911300009113000091130000911300006E
:10030000911300009113000091130000911300005D
:10031000911300009113000091130000911300004D
:10032000911300009113000091130000911300003D
:10033000911300009113000091130000911300002D
:10034000911300009113000091130000911300001D
:10035000911300009113000091130000911300000D
:100360000048004765140000000000000000000085
:10037000000000000000000000000000000000007D
:10038000000000000000000000000000000000006D
:10039000000000000000000000000000000000005D
:1003A000000000000000000000000000000000004D
:1003B000000000000000000000000000000000003D
:1003C000000000000000000000000000000000002D
:1003D000444250501860010000000000000000007E
:1003E000C51B0000C51B0000C51B0000C51B00008D
:1003F000C51B0000C51B0000C51B0000D913000071
:10040000D513000015140000DD3D0000793900000F
:100410003B330000D93D0000C9350000B139000070
:100420001D3E00004FD50100D93A000013340000F2
:100430007F340000893E00008B3E0000FB38000046
:10044000AD3D00004DD50100C51B0000C51B0000DF
:10045000C51B0000C51B0000C51B0000C51B00001C
:10046000C51B0000C51B0000C51B0000C51B00000C
:10047000C51B0000C51B0000C51B0000C51B0000FC
:100480009FDC0000C51B0000C51B0000C51B000051
:10049000C51B0000C51B0000C51B0000C51B0000DC
:1004A000C51B0000C51B0000C51B0000C51B0000CC
:1004B000C51B0000C51B0000C51B000047FC000059
:1004C000C51B0000A3FD0000C51B0000C51B0000EC
:1004D0009FFD00002BFC0000C51B0000C51B000099
:1004E000C51B0000772E01005B3301001B350100A6
:1004F0006F340100DF3301001F320100C51B000013
:10050000C51B0000C51B0000BD350100C51B000058
:10051000C51B0000C51B0000C51B0000C51B00005B
:10052000C51B0000C51B0000C51B0000C51B00004B
:10053000C51B0000C51B0000C51B0000C51B00003B
:10054000C51B0000C51B0000C51B0000C51B00002B
:10055000C51B0000C51B0000C51B0000C51B00001B
:10056000C51B0000C51B0000C51B0000C51B00000B
:10057000C51B0000C51B0000C51B0000C51B0000FB
:10058000C51B0000C51B0000C51B0000C51B0000EB
:10059000C51B0000C51B0000C51B0000791600002C
:1005A00081160000191F0000352E0000892E000062
:1005B000ED3F0000F93F000069510000D1B100009B
:1005C000B9DC0000B1FB0000C13501006916000074
:1005D0008D1600009D1700009D180000E51B00000F
:1005E000851C0000F51C0000791D0000251F00007F
:1005F000A12E0000953F00000540000005490000C5
:10060000474C00009D4D0000A54D0000A94D000085
:10061000C51B0000C54D0000FD4D0000054E00004B
:100620005B4E00005F4E00006D4E0000956C0000B8
:10063000C51B000085510000C51B0000056D0000B2
:100640003D94000081A2000059A30000C9A300004E
:10065000C5CA0000E5CA0000E1CE0000C1DC000010
:10066000D1DC00002FE2000049E4000091E8000026
:1006700083FB000089FB00001D1701000100000042
:10068000000000082000000000020000040000003C
:10069000FF03000050000000010000000100000006
:1006A0000A07080100000000080000000104000023
:1006B0000100000004000400080001000000000028
:1006C000000000000000000000000000000000002A
:1006D000000000000000000000000000000000001A
:1006E000000000000000000000000000000000000A
:1006F00000000000000000000000000000000000FA
:100AE00000F459B200000000FFF75E9F0000000014
:100AF00000F463B100000000FFF7419D000000001A
:100B0000FFF76D9C00000000F3F7AE9800000000B6
:100B1000E9F7679E00000000E5F7989D00000000DF
:100B2000E4F7829F00000000D3F77C9B00000000E8
:100B3000CFF7EC9900000000C9F7D89E0000000034
:100B4000C8F75A9F00000000C8F7B49C00000000DE
:100B5000C2F7549F00000000C0F7449C0000000052
:100B6000C0F7329A00000000BFF78C9D0000000023
:100B7000BFF7569F00000000C2F71E9D0000000056
:100B8000E1F7C29C00000000BFF7049800000000DD
:100B9000BEF7A69E00000000BDF77C9F000000008D
:100BA000BBF76D9C00000000A2F73E9D0000000016
:100BB000B7F7E29A00000000DDF7329B000000006A
:100BC000B9F7889E00000000B2F7669B00000000A5
:100BD000B2F7F69A00000000B2F77C99000000001E
:100BE000B1F7869A00000000DAF7669C000000006A
:100BF000B0F76E9E00000000C1F7FE9A00000000F2
:100C0000AEF73B9B00000000A0F7F69D000000003F
:100C1000A0F7169C00000000ABF7F09E000000005B
:100C2000A2F7E09C00000000A2F7DE9A000000009E
:100C3000A0F7FB98000000009FF7AE9F00000000A7
:100C40009EF7B699000000009DF77C9D0000000013
:100C50009BF7329D000000009AF7F89F000000000B
:100C6000A0F7E09E00000000A0F70F9F000000002A
:100C700099F7DE9A00000000A0F7939C00000000A6
:100C8000D7F7289F00000000D7F71C9A000000004B
:100C9000D7F7169C00000000D9F78A9C00000000DE
:100CA00093F7709A0000000093F776990000000017
:100CB00093F7CD9D0000000093F77D9B000000009E
:100CC00093F7B89A0000000092F7649F00000000BC
:100CD00092F7029D0000000092F7D29A00000000F7
:100CE00092F700990000000092F7149800000000AD
:100CF00092F7129B000000008FF72499000000007B
:100D0000D7F7449B00000000D7F7129B00000000BB
:100D1000D6F7989E000000008CF7539C000000005E
:100D20008CF7939D000000008BF74B9F00000000A4
:100D30008CF78E990000000089F7749E0000000077
:100D400000000000000000000000000000000000A3
:100D50000000000000000000000000000000000093
:100D60000000000000000000000000000000000083
:100D70000000000000000000000000000000000073
:1012E000D41B80000400000000080000B42280002D
:1012F00004000000080800007823800004000000BB
:1013000010080000C4278000040000001808000036
:10131000302880000400000020080000D817810059
:10132000040000002808000000D081000400000034
:10133000300800001C14820004000000380800007F
:101340002838820004000000400800006C6683001A
:101350000400000048080000ACAD83000400000059
:10136000500800000808840004000000580800002D
:101370001C1A840004000000600800009822840009
:1013800004000000680800002C8A840004000000AB
:1013900070080000D8BE8400040000007808000037
:1013A000C0BF8400040000008008000010C3840057
:1013B000040000008808000078C9840004000000D0
:1013C000900800002C9184000400000098080000A0
:1013D0000C4C820004000000A0080000FCD984002E
:1013E00004000000A808000084E38400040000005A
:1013F000B008000018EC840004000000B8080000E9
:101400000C19850004000000C008000084C086009C
:1014100004000000C80800004466850004000000C5
:10142000D008000010A2820004000000D8080000CC
:10143000003B850004000000E008000084B6850041
:1014400004000000E8080000E8B685000400000081
:10145000F0080000CCBA850004000000F808000085
:10146000F8C885000400000000090000B0BE82003A
:101470000400000008090000ACD48500040000004E
:1014800010090000E09B840004000000180900001F
:10149000B8FB8500040000002009000038E3860046
:1014A00004000000280900006CEA86000400000027
:1014B00030090000282586000400000038090000DB
:1014C000F0C0860004000000400900003CC3860014
:1014D000040000004809000018F98600040000001C
:1014E0005009000064FA860004000000580900005A
:1014F0004409870004000000600900001013870001
:101500000400000068090000103387000400000098
:10151000700900005C3B87000400000078090000AF
:10152000A0D98600040000008009000058DA860077
:101530000400000088090000B86087000400000073
:101540009009000018E086000400000098090000DF
:10155000ACE4820004000000A009000058EF820003
:1015600004000000A8090000E4F18200040000006B
:10157000B0090000C0F2820004000000B8090000B9
:10158000D4D1870004000000C0090000D4D4870033
:1015900004000000C8090000BCD687000400000059
:1015A000D0090000F4D9870004000000D809000029
:1015B000C0DA870004000000E0090000DCDC8700DE
:1015C00004000000E8090000F8DC870004000000C7
:1015D000F009000088DD870004000000F809000021
:1015E0007CE2870004000000000A0000CCE38700D2
:1015F00004000000080A0000F4E587000400000071
:10160000100A00009026880004000000180A00005C
:10161000A40B830004000000200A00007C0E83005D
:1016200004000000280A00000819830004000000DC
:10163000300A00005058880004000000380A0000FA
:101640002059880004000000400A0000D46288008D
:1016500004000000480A00008469880004000000BB
:10166000500A0000DC98880004000000580A0000BE
:101670006846836941690BB503695A4651460EB401
:101680004A46414606B4C36882684168FEB40368AE
:10169000C269EFF303810EB48269EFF3058106B4EA
:1016A000034801680029FED06846884714B000BD91
:1016B0003C14000062B6704772B670470449084097
:1016C000002803D003490A6802430A6070470000FB
:1016D000FFFF000000E100E004490840002804D0BA
:1016E00003490A68C04302400A607047FFFF0000D8
:1016F00080E100E0024909689022885870470000A4
:1017000044140000024909689C2288507047000078
:1017100044140000DDBAADBB000000000000000072
:1017200000000000000000000000000000000000B9
:1017300000000000024A11681060081C7047000099
:101740003C1400005648574900220A500168564A86
:101750000A40564F0F403F4206D15046004202D049
:101760004046004229D1FEE7FC2141580A680F2378
:1017700013400F2BF1D0012B01D00431F6E70831D3
:101780004B4B13404B4CA34206D100F0C1F88046AE
:1017900000F0CAF88146E9E7474CA342E6D10B1FA7
:1017A0001B68464C23401824E3409C4600F0B0F8E8
:1017B000824600F0B9F88346D8E7414921224250D9
:1017C000374A40498958FF23194219D051683E4B86
:1017D000194215D01168344B1940D36A10E0A34266
:1017E0000ED0C0460CE039498958194208D0384912
:1017F000895819409942FAD1364B11691942FCD0E7
:1018000049463F4204D19823CB581024E34001E0DD
:10181000314BCB581C242340002B01D000F092F810
:1018200040462E49086048462D49086050462D49DB
:10183000086060462C4908602C490F602C4D2D49EA
:101840000D602D482D49002204C08142FCD8043D82
:10185000AD46009DEC431023DD41AC4210D1240C79
:10186000A400274D2C606B461B1B2648264D286084
:10187000002C05D01D68056004330430043CF9DCFD
:1018800081B0224B1B490D68ED1A0D606C46E41ABD
:10189000A546684600090001854600F0D7FCFEE732
:1018A0000000001814060000FFFF0000000000F018
:1018B00000FF0F00002A0800000E0800000000FFD3
:1018C000E0010000040600000000380018060000D7
:1018D0000C06000000100000080400004414000082
:1018E000481400004C140000501400004014000084
:1018F00000000800945C0100BC5F01009C660100D0
:101900009C5C01008C750200985C010000000100E5
:1019100008680F2204310240052AF9D1014A10401B
:10192000F746000000F0FFFF08680F220431024074
:10193000052AF9D180221042F6D0014A1040F7461C
:1019400000F0FFFFFEE7000000487047BC5F0100A9
:1019500000487047FC5F010000487047606001006C
:10196000004870470860010003F04ABA01238B4029
:101970002DE9F74FB3F5001F28BF4FF40013042BD8
:1019800038BF04230330019320F00304FFF7E0FF86
:10199000354B0022D3F800B015469446134627E095
:1019A000D1F800A0A24522D301F10807019E07EB60
:1019B0000A08C6F10009C4EB080609EA0606BE4299
:1019C00015D3DDF8049009F1FF3919EA070FCDF8B6
:1019D000009002D0F71B072F09D9C4EB0A075F4517
:1019E00005D2424635466FB1BB4684460B46084693
:1019F00041680029D4D13BB91C4A1846116801310D
:101A000011602FE084460B46521B111B072909D990
:101A100018682A19401A0839186029515968516004
:101A20005A6022461968891A072903D85A68CCF8DF
:101A3000042004E05A50A1F108021A605B180C4817
:101A4000002219685A6002688A1802600948016811
:101A5000083101608918084A1068814288BF116006
:101A600003F10800BDE8FE8FF4030000F00300005E
:101A700014040000480400000460010038B5194B4C
:101A800050F8082C196805468A1A1A60164BA0F1FE
:101A900008041A68083A1A60FFF75AFF02E0A342E6
:101AA00003D218464368002BF9D155F8082CA91821
:101AB0008B4205D119685B685218083245F8082C2A
:101AC0006360036803F108028218A24207D155F847
:101AD000082C9B18083303606368436000E044608F
:101AE000002038BD140400004804000010B5002197
:101AF0004022044605F04ADC104B2360104B636023
:101B0000104BA360104BE360104B2361104B6361DB
:101B1000104BA361104BE361104B2362104B6362C7
:101B2000104BA362104BE362104B2363104B6363B3
:101B3000104BA363104BE36310BD00BF0000000017
:101B4000F8370100F8370100915C0100945C010056
:101B5000BC5F0100BC5F01009C6601009C66010047
:101B6000FCB60200FCB602008C6A0300FC00000018
:101B7000000100000000000000000000F0B52D4D45
:101B800091B06846FFF7B2FF2978002937D108984D
:101B9000099C241A06D0224605F0F8DB0898214655
:101BA00009F06EDD22462449244805F015DC244B5B
:101BB00000241C7001232B70224D09F091DC2B684E
:101BC000002B33D01A78002A30D09F895E890CE030
:101BD0002B681D4AD98910680AF076DC0134014669
:101BE00030B1184B186806F0B1DBA319BB42EFDB2C
:101BF000164B29681868012206F0ECDB16E0144E3B
:101C0000317899B90A980B9C241A06D0224605F01F
:101C1000BDDB0A98214609F033DD08480D4922460C
:101C200005F0DADB00232B700123337009F058DC58
:101C300011B0F0BDFC0300009AFB8800553901008B
:101C40001460010044040000900400002C04000013
:101C50006C600100521E8900014B1868704700BF7C
:101C6000945C0100002070472DE9F04F9DB00AA858
:101C7000FFF73CFFFFF7F0FF0446FFF7F3FF0A9B77
:101C80000B9A0F99D21A0E9B0D9DC3EB0109119966
:101C9000109B6E4ECB1A0C99DFF80082C1EB050B3E
:101CA00093443268D8F8001002F50052521A4A44A0
:101CB000D2185A44141924180994DFF8E4A1644C8A
:101CC000644F2268DAF800506348AD183A68089308
:101CD000C5EB020CCDF81CC005F07EDB089B09F5B6
:101CE0007E71019303F57E7307339B0A07310BF571
:101CF0007E72890A073202930823920A00910393A5
:101D000059464B46554805F067DB3368206839680B
:101D1000DDF81CC00190039300F57E7003F57E731F
:101D20000CF57E7601F57E7207300733800A9B0A38
:101D300007320736B60A920A02900493484863466F
:101D4000009605F049DB099905F57E7201F57E7371
:101D500007339B0A0732920A00932946099B4148A0
:101D600005F03ADB404B414F1968414805F034DB40
:101D70003968404B0A6846469A4203D03E4805F00F
:101D80002BDB25E01A910B4604E015683948131D3A
:101D9000854203D11A461BAB9A42F6D333681AAD7B
:101DA000009336482B461A9205F016DB3B681A9AC8
:101DB000E91A3348D31A0A46009305F00DDB33685D
:101DC0001A9A591B2F489B1A0A46009305F004DB08
:101DD0002D4B1B684BB31A783AB35989DD891A89A0
:101DE00001FB05F638354D4306F57E7307339B122C
:101DF0008DE8280005F57E7307339B120293234874
:101E0000334605F0E9DA2368DAF80020991B9B18BD
:101E10005B1B03F57E7001F57E720730800A073286
:101E20000090920A1A4805F0D7DA1A4B1D6809F09B
:101E300081DD044609F078DD29460346224616482E
:101E400005F0CADA1DB0BDE8F08F00BF04600100E4
:101E500014040000F40300008839010097390100E0
:101E6000D63901001B3A0100F00300006860010050
:101E7000563A01004B415453713A0100953A010022
:101E8000CC3A0100F13A010044040000173B010084
:101E9000443B0100040400006C3B010010600100A1
:101EA0004804000008B57146034805F095DA0120A2
:101EB000BDE8084009F0249E9A3B010000487047A5
:101EC000186001002DE9F34107460C4609F032DDA8
:101ED00010B909F035DD3AE0002620460DF1060183
:101EE0006A46ADF80660009607F103080AF072D959
:101EF000009D28F00308454440F638039D4226D84B
:101F00002DB328463146FFF731FD0446F8B131467E
:101F1000009A05F03BDA009BA781ED1AE218C8EBA6
:101F2000050802EB0803A3606368013D62F3140334
:101F300063601B0C65F34F13E380204609F0DEDC81
:101F400001232080A370BDF80630E38104E0044B38
:101F500000241A6801321A602046BDE8FC8100BFE7
:101F60004C04000038B50446E389590621D4A27810
:101F7000013AD2B2A270002A27D1E27862B1134BA3
:101F8000204653F82250E9890AF0D4D92846214640
:101F9000BDE8384006F0509ADA0516D40C4B2046BE
:101FA000A360218809F0D4DC2046BDE83840FFF763
:101FB00065BD074B2046A3602188A56B09F0C8DCEE
:101FC0002046FFF75BFD2C46CEE738BD506101008F
:101FD000EFBEADDEF8B51F4E01220D463068002180
:101FE00002F0AAFF002108220746306802F0A4FF91
:101FF000022D014610D107EA000414F4806406D0D3
:10200000306821F48061002202F096FF2C46FA0429
:102010001ED544F004041BE0052D10D107F4006424
:10202000D4F1010438BF0024BB0511D5306841F458
:102030008061002202F080FF44F0200408E035B9FE
:10204000306829460522BDE8F84002F075BF00243B
:102050002046F8BD0004000029B9034B114618685A
:10206000072202F069BF7047000400002DE9FF4716
:102070000446FFF723FF2368C462032B03D1474BB9
:1020800018680FF0EFD92368A3F110020F2A04D8C3
:1020900004B0BDE8F04709F0CF9B032B0FD1404AB5
:1020A000E36C22F00102934209D1626C0633936122
:1020B000636C4FF0FF321A6004B0BDE8F087656CC6
:1020C000FFF7CAFD374E636CF169C3EB000A326853
:1020D000354805F081D9A36C21680093636C2246D2
:1020E0000193A36831480293E36800270393E36CEC
:1020F00005F072D9E36904F110010093236A2C48BA
:102100000193636A4FEA9A0A0293A36AB94603935A
:102110000EC905F061D9A36B04F12C010093E36BA8
:1021200024480193236CB84602930EC905F054D994
:10213000EB682148009395E80E0005F04DD9EB6956
:1021400005F1100100931D480EC905F045D918E0AE
:102150007A59D3070FD5FF2A0DD9194B9A4204D9C2
:1021600002F16243B3F5801F05D81648394605F0E1
:1021700033D909F101090437B9F10F0F08F101084A
:1021800001D8D045E4D13368002043F4806386E869
:10219000180004B0BDE8F04709F0B29C000400004C
:1021A000D1C0800070600100C63B0100DC3B010033
:1021B000113C0100443C0100733C0100913C0100D2
:1021C000F8370100AF3C0100036810B5022B04464C
:1021D00003D0084B18680BF0BDDE2046FFF746FF22
:1021E0002368022B05D0034B1868BDE810400BF0A4
:1021F000F19E10BD00040000014B1868704700BF3D
:10220000B46001002DE9F04104464C200E4615460D
:1022100098460AF0D1D80746A0B100214C2205F01B
:10222000B5D84FF4F0637B634FF47A73FB631C23E0
:102230003B640C237B640423C7F80C803E607D6004
:10224000BC60BB643846BDE8F081704710B515F03E
:102250004BFF15F059FF15F0B3F816F005F80446DA
:1022600015F06CF820461BF0D9FCFFF787FC2046E0
:10227000BDE8104009F0AE9A002301E001334008A8
:102280000028FBD1C3F120007047C0177047431EE0
:1022900023EA0000FFF7F9BF4840FFF7F8BF22EA42
:1022A000000208401043704708B5FFF7F8FFC0B2BE
:1022B00008BD2DE9F843DDF8208006460D4614469A
:1022C0009946002707E0E95DE25D3046FFF7ECFF45
:1022D00008F8070001374F45F5D1BDE8F8830379C9
:1022E000013BDBB2A3EB511300EB83008068D0F11C
:1022F000010038BF0020704710F0010130B51AD03E
:1023000002230122591E01249DB214FA01F1202D4D
:1023100002D09C40013C01E04FF0FF3400FB02F58D
:102320002C40A14234BF891811460133212B0A46A3
:10233000E8D1084630BD084630BD38B5054600F541
:102340001770FEF3BDF700240AE004F1760005EBF8
:102350008000436813B10430FFF304F70134A4B2E2
:10236000B5F85831A342F0D838BD2DE9F041061D2B
:102370009AB004460431304604321D46FEF384F61A
:102380000746002D30D0204601210AAA202305F15E
:102390000408FFF3FDF647B920462946FFF368F627
:1023A0000028D4BF0020012000E001200021FFF719
:1023B00073FF3146054642463046FFF3FBF40121E8
:1023C00012AA20232046FFF3E3F602AEE8B20AA9E0
:1023D00012AA20230096FFF76CFF636820460121B4
:1023E00032469B0000F0AEDA1AB0BDE8F081F0B5DD
:1023F000071D9BB004460431384604321D46FFF3E6
:10240000D9F4064625B320230AAA01212046FFF36A
:10241000BFF630460021FFF73FFF2A1D064639462A
:102420003846FEF331F6012112AA20232046FFF39D
:10243000AFF602ADF0B20AA912AA20230095FFF769
:1024400038FF6368204601212A469B0000F07ADAB3
:102450001BB0F0BD2DE9F041B8B0154606468846E0
:10246000FFF3C4F66A68044602329300502B4FD83B
:10247000D8F8043003339B00902B49D824A9FFF3EC
:1024800079F50746002844D06A6805F108019200F2
:1024900026A804F0F7DED8F8042020466946033267
:1024A000FFF368F50446002833D02846FFF3A2F670
:1024B0006D686D01451B00E0203515F11F0FFBDB3A
:1024C00020464146FFF306F63DB13846294600F066
:1024D00079DA2046294600F075DA201D391DFFF310
:1024E0009FF220463946FFF3C3F5002805DB20465E
:1024F00021463A460023FFF77AFF1DB12046694284
:1025000000F060DA30462146FFF3E4F5012000E0F8
:10251000002038B0BDE8F08108B528B1FFF36AF6B5
:10252000D0F1010038BF002008BD2DE9F04104467C
:10253000ACB00D461646FFF359F66B6862682B94F3
:10254000B2EB430F01D3201D08E001210022DB0084
:10255000FFF3CAF42B9000284ED00430291DFFF35E
:10256000DBF23046FFF7D8FF0121FFF795FE20236D
:102570000BAA012180462046FFF30AF62B981BADDB
:10258000201A18BF01200121FFF786FE2B9907466C
:102590002046FFF39FF5012113AA20232046FFF3D5
:1025A000F7F5F8B213A90BAA20230095FFF781FED7
:1025B00001212A4620232046FFF3EAF53246204631
:1025C0002B99FFF747FF0646B8B1012123AA202324
:1025D0002046FFF3DDF503AE5FFA88F023A92A4613
:1025E00020230096FFF765FE324620460121202376
:1025F000FFF3CEF5012600E006462B9B9C4202D05D
:102600002BA8FFF3AFF530462CB0BDE8F0812DE9E3
:10261000F74FD2F804A007795FFA8AF991F804809D
:10262000144600F1080609F1FF390D463046002135
:10263000BA005FFA89F9083404F0A8DE013F08F116
:10264000FF3104EB890B6FEA0909C9B24FEA890926
:10265000FFB208354FEA880805EB8105CDF80490F4
:10266000002306EB8706C8F1000900211DE05FFA90
:102670008AF84FEA88085C46C8EB0608304600270F
:102680000DE03A46076854F804C90023D2196F5880
:1026900043F10003E7FB0C2340F804291F464045A3
:1026A000EFD1019804393350043E4945DFD1002071
:1026B000BDE8FE8F2DE9F04FBDB088464699D0F8B1
:1026C0000C900C1D8568039400684C6808F10401A7
:1026D000049109F1040105910790114628461A4614
:1026E0000023FFF794FF98F8042099F804302E791E
:1026F0000892002109F108009A000835069306F1B6
:10270000FF3A04F043DE039805EB8A0AA50040195E
:102710004FEAC40B0A90CBEB0A0B5146A4460020AB
:10272000AE462BE00B68079A0A9F53430E46099367
:102730002546002002910EE057F8043931680B93CA
:10274000002342180B98099943F10003E1FB002391
:1027500046F80429184615F1FF35EDD20299A50077
:102760004D1B07E01E680023821943F1000345F862
:1027700004291846AB452B46F4D304391CF1FF3C21
:10278000D0D2059A069B754602EB8306CBF8000073
:10279000CEEB0A0A2246002303E05AF80310F15058
:1027A000043B013A971CF8D10021D9F80800FFF743
:1027B00073FD0599039A07460498FFF3FBF2022183
:1027C0002B4640460CAAFFF3E3F40498089900EB6B
:1027D000810303E056F8042943F8042914F1FF3477
:1027E000F8D202211CAA2B464046FFF3D1F42CACB0
:1027F000F8B21CA90CAA2B460094FFF75AFD4046DC
:10280000022122462B4600F09DD800203DB0BDE8B5
:10281000F08F2DE9F04F04468BB0184609921F4601
:102820000891FFF3E3F47B6804F5AC7206929B0019
:10283000002200250590A4F8582107932E4668E051
:1028400004EB8609D9F80410002960D00698FFF33C
:10285000D7F0804600285AD101214246079B0598AF
:10286000FFF342F305F1200A04EB8A0ACAF85C017F
:10287000D9F8040004EB8503C3F85C01FFF7FCFC06
:10288000C0F11F00C0B204900999DAF85C01FFF3AF
:1028900021F4C146DDF810A032E04FF0010B05F144
:1028A000200884F860B204EB8808D8F85C1104F5BD
:1028B000177C60460A460B46CDF80CC00097FFF720
:1028C000F9FE049ADDF80CC053B2C9EB03030BFA0E
:1028D00003FB04EB86035B681BEA030F0AD00023AB
:1028E00084F86032D8F85C116046089A0B4600976D
:1028F000FFF7E0FE0AF1FF3A5FFA8AFA09F10109EF
:102900001AF0800FC9D00135EDB2A4F85851013644
:10291000F6B294F84431B34292D801200BB0BDE82E
:10292000F08F2DE9F04F8346ADF52F7D18461C46FC
:1029300089469246FFF35AF4676801258046BE0037
:1029400000212422A1A804F021DD294600223346DB
:102950004046A195FFF3C8F2294600223346AB90CA
:102960004046FFF3C1F2294600223346AC90404670
:10297000FFF3BAF202217B198B40AD90A1AA404629
:10298000FFF3B2F2AA90AB9800F008D8267904F1D0
:102990000805013EF6B255F8260010F0010000F0DF
:1029A00093804946AA9A2346AC98FFF32DF7234615
:1029B000AB99AA9AAD98FFF327F755F82600FFF7D1
:1029C0009BFC002105464FF41E7203A804F0DEDCD8
:1029D00005236A4221469AA88DF80C30FEF37CF458
:1029E000514603A8FEF3DEF3234603A8AC99AD9A43
:1029F000FFF70FFF9DF8507107F1FF381FFA88F8B5
:102A00000FFA88F3002B4FDB03A800EB8303596810
:102A100059A8FEF3BBF61F2846D803A901EB800393
:102A2000D3F8DC11AD98FFF355F3C8F10008002589
:102A30002DE0AD9901238DF86C329AA80A460B4619
:102A40000094FFF737FEBB1E1BB203A8EA18C31899
:102A50005B1993F80431314601369942E9DB00EB0A
:102A60008203596891B1002359A88DF86C32FEF3A6
:102A70008DF61F2818D803A901EB8003AD990094A7
:102A8000D3F8DC219AA80B46FFF714FE013D45451B
:102A90004FF00006D7D19AA85946AD9AAB9B8DF856
:102AA0006C620094FFF706FE03A8FFF746FCACA893
:102AB000FFF358F3ADA8FFF355F3ABA8FFF352F3C0
:102AC000AAA8FFF34FF301200DF52F7DBDE8F08F8D
:102AD0002DE9F04FB3B0039018461C468A46934642
:102AE000FFF384F3D4F80490012509F10107BF0036
:102AF00080464FEA890600213A4605A804F046DCE4
:102B000029460022334640460595FFF3EDF129465C
:102B1000002233462E904046FFF3E6F1294600227C
:102B200033462F904046FFF3DFF12946002233461B
:102B300030904046FFF3D8F102213B46319005AA80
:102B40004046FFF3D1F12D902E98FFF327F7267919
:102B500004F10805013EF6B255F82600DAF80470D3
:102B600010F0010000F08B8051462D9A23462F98DB
:102B7000FFF34AF62E992D9A23463098FFF344F638
:102B800055F82600FFF7B8FB7F014242214626A8F0
:102B9000FEF3A2F3013F01E0A6F12007BEB25846C2
:102BA0003146FFF79CFB0028F6D109F1FF393FB20F
:102BB0000BF1080AA9EB67175AF82700FFF75CFB2F
:102BC000361A3BE0309901250A460B4626A88DF8B7
:102BD0009C500094FFF76EFD294616AA20233098DA
:102BE000FFF3D6F230994FF000080B462F9A26A833
:102BF0008DF89C800094FFF75DFD1EAA29462023D6
:102C00003098FFF3C5F206F01F0015FA00F0A9EBAB
:102C100067175AF8273041461840FFF73DFB0EAFC3
:102C2000C0B216A91EAA20230097FFF742FB3098D6
:102C300029463A462023FFF385F6013EB6B237B265
:102C4000002FBFDA00230399309A8DF89C3026A814
:102C50002E9B0094FFF72EFD26A8FEF331F32FA83C
:102C6000FFF380F230A8FFF37DF22EA8FFF37AF293
:102C70002DA8FFF377F231A8FFF374F2012033B0EF
:102C8000BDE8F08F2DE9F04FBFB0039018461D4608
:102C900089469246FFF3AAF26E6802230124B60029
:102CA00000278DF8F7300A233C9321463A463346F5
:102CB000804637973B978DF8F640FFF315F1214694
:102CC0002D903A4633464046FFF30EF121462E90B2
:102CD0003A4633464046FFF307F102212F903A4629
:102CE00033464046FFF300F1214630903A463346E2
:102CF0004046FFF3F9F0214631903A4633464046CC
:102D0000FFF3F2F0214632903A4633464046FFF355
:102D1000EBF0214633903A4633464046FFF3E4F069
:102D2000214634900DF1F60223463398FFF30AF65C
:102D300021460DF1F70223463498FFF303F62146AE
:102D40003A4633464046FFF3CFF0214635903A46A7
:102D500033464046FFF3C8F0214636903A463346A4
:102D60004046FFF3C1F0214638903A46334640468C
:102D7000FFF3BAF0214639903A4633464046FFF316
:102D8000B3F021463A903CAA23463098FFF3DAF597
:102D900030982B4602462946FFF729FB03992A461D
:102DA0002D98FFF7C2FB2B4630992D9A2E98FFF3F2
:102DB0002BF52E992A462F98FFF7B7FB2E982F9ABE
:102DC00001462B46FFF7D1FA2E98FFF7A5FB2146C7
:102DD000FFF762FA29468446349A2F982B46CDF89D
:102DE00008C0FFF704FB2E992F9A2B463198FFF766
:102DF0006FFE4A462B4630992E98FFF305F52E9824
:102E000029460246FFF374F251462E9A2B46359816
:102E1000FFF3FAF452462B462E982946FFF7E7FABD
:102E2000484629462F9AFFF363F22E982F9A0146BF
:102E30002B46FFF3E9F42F983399319A2B46FFF78D
:102E400094FA2E992F9A2B463698FFF3DDF420231F
:102E500021461DAA3598FFF39BF12023214625AA80
:102E60003698FFF395F1DDF808C00DF1540B5FFAC9
:102E70008CF01DA925AA3346CDF800B0FFF719FA4A
:102E8000334621465A464046FFF32EF02A46014675
:102E900037902E98FFF749FB2E98379A01462B461C
:102EA000FFF3B2F44946379A2B462F98FFF3ACF460
:102EB0002E982F9A01462B46FFF757FA524639981B
:102EC0002E992B46FFF751FA30992D9A2B462E98C2
:102ED000FFF39AF42B462E99379A3898FFF394F41F
:102EE00038992A462E98FFF720FB2E98389A0146EB
:102EF0002B46FFF389F44946389A2B462F98FFF367
:102F000083F42E982F9A01462B46FFF72EFA52464D
:102F10003A982E992B46FFF728FA339A2B462E988B
:102F20002946FFF764FA2E982146FFF34BF52E98B9
:102F30002B4602463999FFF7CBFD2E98FFF7ECFAA6
:102F4000214681462E98FFF3AFF2214640EA090060
:102F5000FFF7A2F9214681461DAA20233998FFF3E5
:102F600017F15FFA89F92023214625AA3A98FFF341
:102F70000FF148461DA925AA3346CDF800B0FFF74A
:102F800098F921465A4633464046FEF3ADF72023D2
:102F90003B9021461DAA3798FFF3FAF020232146E3
:102FA00025AA3898FFF3F4F00DF1140A48461DA93C
:102FB00025AA3346CDF800A0FFF77BF92023284649
:102FC00021461DAAFFF3E4F006F1FF393EAB994418
:102FD00019F8843C03F00303032B03D0444804F0A6
:102FE000FBD954E03A46404621463346FEF37CF78F
:102FF0003B4680462946339A2E98FFF7B6F92E981D
:103000000221FFF3DFF42B463B992E9A4046FFF74F
:103010005FFD21461DAA20230398FFF3B9F025AADE
:10302000202321464046FFF3B3F019F8840C19F829
:10303000641C00F0010001F00101FFF72DF92946A1
:103040002B46074642462E98FFF7D1F921461DAA86
:1030500020234046FFF39CF0214625AA20232E98EA
:10306000FFF396F00AEB0605F8B21DA925AA334630
:103070000095FFF71EF92146524633464898FFF364
:1030800061F4499821462A463346FFF35BF42DA8A4
:10309000FFF368F02EA8FFF365F02FA8FFF362F0AE
:1030A00031A8FFF35FF030A8FFF35CF032A8FFF324
:1030B00059F033A8FFF356F034A8FFF353F035A8C6
:1030C000FFF350F036A8FFF34DF037A8FFF34AF0B6
:1030D0003BA8FFF347F038A8FFF344F039A8FFF30B
:1030E00041F03AA8FFF33EF000203FB0BDE8F08F7A
:1030F000E93C010000487047883D010000487047E6
:10310000103D0100004870474C3D010000487047E9
:10311000C43D0100012801D1FFF7F0BF022801D111
:10312000FFF7F0BF032801D1FFF7F0BF042801D15A
:10313000FFF7E0BF0020704700487047DC600100E7
:1031400000487047305D0100014B43F82010704784
:1031500050610100034B53F82000431A584240EBE2
:10316000030070475061010042893C2928BF3C217F
:10317000034691422CBF08461046988170470000D4
:1031800000F13402342A08B5034606D90548202147
:10319000054A04F061D9034808BD044A434252F885
:1031A000230008BD306101007F3E01000CA28800B1
:1031B00038B5049C1D467CB1FF2B0DD002B95BB91C
:1031C0006B1C2070A170637025B11146E01C2A466B
:1031D00004F058D803356419204638BDC0F3804048
:1031E00070470000044B00F44032134303420CBF0D
:1031F00000200120704700BFD091540038B505462B
:10320000FFF7F0FF38B10B4B2B4033B915F49004A6
:1032100018BF182402E0044600E01024284605F0F8
:10322000BDDF20B1034B2B40002B18BF10242046DC
:1032300038BD00BFC4D1040000487047685D01007C
:1032400000487047785201000020704708B5FFF72A
:10325000F3FF41780278012313FA01F113FA02F225
:103260000A4381788B4042EA030008BD2DE9F74309
:103270004FF0000804460F4616469946454601237E
:1032800003FA08F313EA090F2BD063692046222BB7
:103290000ADDE3695A0607D540F6270100220EF041
:1032A000AFDA0146204600E000214FF4C4620EF080
:1032B00047D9C0F8008063692046222B0ADDE36904
:1032C0005B0607D540F6270100220EF099DA014689
:1032D000204600E0002140F224620EF031D903685C
:1032E0001D4308F10108B8F11F0FC8D19DF828301F
:1032F0004BB145B10123009320462B463946324657
:10330000FFF7B4FF05432846BDE8FE83816838B562
:1033100040F63C039942044628D1C3680B2B03D8DE
:103320004FF0A871994001D40C2B1FD949F21823F2
:103330009A4205D049F640439A4217D10C4D00E01D
:103340000C4D63692046222B0ADDE369590607D537
:1033500040F6270100220EF053DA0146204600E035
:10336000002140F2DC620EF0EBD8056038BD00BFF2
:1033700099010100B601010038B543690446222BCA
:103380000ADDC3695D0607D540F6270100220EF06D
:1033900037DA0146204601E0204600214FF4C062A2
:1033A0000EF0CED80568204605F07C05AD08FFF785
:1033B00047FF03E08378AB4207D00C3010B103889D
:1033C000002BF7D12046FFF73FFF03884FF47A70B8
:1033D000584338BD70B5044616460D460AF0B0DDB8
:1033E00094F86023094B002818BF0123012A94F8A0
:1033F000682308BFD4F85C33012A0CBFD4F86423D7
:103400006FF000422B60326070BD00BF0100820E81
:103410002DE9FF471D46436990460022222B0446B2
:1034200089460292039209DDC3695F0606D540F61C
:1034300027010EF0E5D90146204601E02046002193
:103440004FF4C4620EF07CD80560236A20460C2B32
:10345000636916DD222B0ADDE3695E0607D540F6B7
:10346000270100220EF0CCD90146204600E00021C1
:103470004FF4C5620EF064D807683F0CBF05BF0D5E
:1034800014E0222B0ADDE369590607D540F627012F
:1034900000220EF0B5D90146204600E000214FF48D
:1034A000C5620EF04DD807683F0AFFB20123AB405A
:1034B00000262046494642460096FFF7D7FE0546BD
:1034C000012212FA06F32B4207D000922046494609
:1034D0004246FFF7CBFE25EA000501361F2EEFD14D
:1034E000204602A903AAFFF775FF029B002625EAE2
:1034F000030A35460123AB4013EA0A0F08D02046E1
:1035000049464246EBB2FFF783FF864238BF064684
:1035100001351F2DEED1B81C801904B0BDE8F0872D
:103520002DE9F041069E044615461F46FFF78EFE24
:10353000002870D010EA060800EA07072CD063695B
:103540002046222B0ADDE3695A0607D540F62701FB
:1035500000220EF055D90146204600E0002140F23D
:103560001C620DF0EDDF63690646222B20460ADD62
:10357000E3695B0607D540F6270100220EF040D92B
:103580000146204600E0002140F21C620DF0D8DF29
:10359000036843EA08033360002F2BD06369204699
:1035A000222B0ADDE3695E0607D540F627010022DB
:1035B0000EF026D90146204600E000214FF4C362F8
:1035C0000DF0BEDF63690646222B20460ADDE36963
:1035D000590607D540F6270100220EF011D9014601
:1035E000204600E000214FF4C3620DF0A9DF03681C
:1035F0001F433760079B9A0305D4BDE8F0810A207A
:1036000008F0C8DB01E040F2DD54D5F8E0319B035F
:1036100001D4013CF3D1BDE8F081F7B51E46436902
:103620000446222B0F4615460BDDC3695A0608D502
:1036300040F6270100220EF0E3D80097014620460D
:1036400002E00097204600214FF0FF334FF4CA629A
:103650000EF026DC6369222B0CDDE3695B0609D5DD
:1036600040F62701204600220EF0CAD800960146F7
:10367000204602E000962046002140F254622B468C
:103680000EF00EDCFEBDF7B51E4643690446222B44
:103690000F4615460BDDC3695B0608D540F62701CA
:1036A00000220EF0ADD800970146204602E00097B8
:1036B000204600214FF0FF334FF4CB620EF0F0DBD9
:1036C0006369222B0CDDE369590609D540F6270111
:1036D000204600220EF094D800960146204602E0D3
:1036E00000962046002140F25C622B460EF0D8DBAB
:1036F000FEBDF7B51E4643690446222B0F4615460C
:103700000BDDC369590608D540F6270100220EF0EB
:1037100077D800970146204602E000972046002116
:103720004FF0FF334FF4CC620EF0BADB6369222B0B
:103730000CDDE3695A0609D540F627012046002230
:103740000EF05ED800960146204602E00096204624
:10375000002140F264622B460EF0A2DBFEBD4369FD
:1037600013B5222B04460DDDC3695B060AD540F66E
:10377000270100220EF044D84FF4806301460093E5
:10378000204604E04FF480630093204600214FF46C
:10379000C0620EF085DB1CBD2DE9F04F013AD2B2BC
:1037A000082A85B004469A4615D8374B9E5C374B9D
:1037B0009F5C374B13F80290364B9B5C0393364B60
:1037C00013F802B0354B9B5C0293354B13F8028023
:1037D000344B9D5C07E00025A8460295AB46039557
:1037E000A9462F462E466369222B0DDDE3695B0651
:1037F0000AD540F62701204600220EF001D8CDF868
:1038000000900146204603E0CDF8009020460021BC
:103810004FF0FF334FF4CB620EF042DB6369222B93
:103820000FDDE36958060CD540F62701204600223B
:103830000DF0E6DF07EA0A03B34001460093204695
:1038400005E007EA0A03B34020460093002117FA77
:1038500006F340F25C620EF023DB039B83B148FA6F
:103860000BF208EA0A0848FA0BFB2046029C29469C
:10387000A2400BFA04F305B0BDE8F04FFFF703BF19
:1038800005B0BDE8F08F00BF5C510100655101003B
:103890006E5101007751010080510100EC5301008D
:1038A000F8510100015201002DE9F8430446894610
:1038B0000DF040DE0021064620460EF0EBDB804690
:1038C0002046FFF7B9FC074620460EF055DA494678
:1038D000054642463B782046FFF79AFD0B2302300F
:1038E0005843074B3146EB18B3FBF5F545432046EB
:1038F0000EF0D0DB0A23B5FBF3F5A8B2BDE8F883E0
:103900003F420F0038B543690446222B0ADDC369E4
:103910005D0607D540F6270100220DF071DF014654
:10392000204601E02046002140F214620DF008DE3E
:1039300063690568222B20460ADDE369590607D52D
:1039400040F6270100220DF05BDF0146204600E033
:10395000002140F214620DF0F3DD03689D4214D0A3
:1039600063692046222B0ADDE3695A0607D540F633
:10397000270100220DF044DF0146204600E000212F
:1039800040F214620DF0DCDD0568284638BD38B51C
:103990001C461D68FFF7B6FF03462360401B38BD79
:1039A0002DE9F743002504460F46164698469DF834
:1039B00028900195FFF7A6FF019063692046222B0E
:1039C0000ADDE3695B0607D540F6270100220DF00A
:1039D00017DF0146204600E000214FF4C2620DF0DF
:1039E000AFDDB9F1010F006801D108B90EE050B99F
:1039F000B8EB451F09D920463946324601ABFFF7DF
:103A0000C6FF2D18D9E7002000E001200B9B6D01B7
:103A10001D60BDE8FE832DE9F04F002685B080468D
:103A2000894692460396012503AF404649465246D1
:103A300043F6982300950197FFF7B2FF044688B933
:103A40008DE881004023404649465246DDF80CB0DF
:103A5000FFF7A6FF039B38B99B445E4443F69723C8
:103A60009E42E0D9284600E0204605B0BDE8F08F30
:103A70002DE9F843994643690446222B0E46154624
:103A8000DDF82080099F0ADDC3695A0607D540F694
:103A9000270100220DF0B4DE0146204601E0204659
:103AA00000214FF4C3620DF04BDD03682046C9F8D6
:103AB00000306369222B0ADDE3695B0607D540F617
:103AC000270100220DF09CDE0146204600E0002187
:103AD00040F21C620DF034DD03682046C8F8003067
:103AE000D5F8E0313B60FFF7B1FB0746002872D004
:103AF000D5F8E031990304D4204631462A46FFF731
:103B00008AFF63692046222B0ADDE3695A0607D53E
:103B100040F6270100220DF073DE0146204600E04A
:103B200000214FF4C3620DF00BDD63690646222BC2
:103B300020460ADDE3695B0607D540F6270100222F
:103B40000DF05EDE0146204600E000214FF4C36226
:103B50000DF0F6DC0368FF433B40336063692046A9
:103B6000222B0ADDE3695E0607D540F62701002215
:103B70000DF046DE0146204600E0002140F21C62C6
:103B80000DF0DEDC63690646222B20460ADDE36980
:103B9000590607D540F6270100220DF031DE014617
:103BA000204600E0002140F21C620DF0C9DC0368F1
:103BB00040F2DD541F40376002E00A2008F0EAD8E6
:103BC000D5F8E0319A0301D5013CF6D16420BDE877
:103BD000F84308F0DF98BDE8F88337B5044601AB39
:103BE0004FF400616A460EF063DA63692046222BC7
:103BF0000ADDE3695D0607D540F6270100220DF0D6
:103C0000FFDD0146204600E000214FF4CE620DF0BA
:103C100097DC056815F0005316D063692046222B07
:103C20000ADDE369590607D540F6270100220DF0A9
:103C3000E7DD0146204600E000214FF4CE620DF0A2
:103C40007FDC0560012500E01D4620469DE806005A
:103C50000EF04CD928463EBD70B504460E460DF018
:103C600069DC0021054620460EF014DA3146024692
:103C70002046FFF781FB2946064620460EF00ADA69
:103C8000304670BD014B1860704700BF9461010061
:103C9000F8B5484F04463A68002A40F089804369E5
:103CA000222B09DDC3695B0606D540F627010DF01E
:103CB000A7DD0146204601E02046002140F21462C3
:103CC0000DF03EDC63690568222B20460ADDE369BE
:103CD0005E0607D540F6270100220DF091DD014672
:103CE000204600E0002140F214620DF029DC036858
:103CF0009D4214D063692046222B0ADDE3695906F0
:103D000007D540F6270100220DF07ADD0146204656
:103D100000E0002140F214620DF012DC056842F26E
:103D2000107008F037D863692046222B0ADDE3695A
:103D30005A0607D540F6270100220DF061DD014645
:103D4000204600E0002140F214620DF0F9DB6369C7
:103D50000668222B20460ADDE3695B0607D540F69C
:103D6000270100220DF04CDD0146204600E0002135
:103D700040F214620DF0E4DB03689E4214D06369E4
:103D80002046222B0ADDE3695E0607D540F62701AF
:103D900000220DF035DD0146204600E0002140F212
:103DA00014620DF0CDDB0668751B642675433D601B
:103DB0003868F8BD946101002DE9F74F0446884644
:103DC00091461F460DF0E8DF8346002840F0D98079
:103DD00020460DF0AFDB5946824620460EF05AD9F8
:103DE000636905462D2B0CD1D0F8F430B9F1000FE2
:103DF00002D023F0007301E043F00073C5F8F43003
:103E0000B8E02046FFF718FAC37801269E4000F07C
:103E1000B180B9F1000F5ED063692046222B0ADD24
:103E2000E369590607D540F627015A460DF0E8DC4C
:103E30000146204600E000214FF4C3620DF080DB14
:103E4000036841463B6043EA06070123009320468E
:103E50003B462A46FFF70AFA63690743222B2046AE
:103E60000ADDE3695A0607D540F6270100220DF066
:103E7000C7DC0146204600E000214FF4C3620DF08C
:103E80005FDB414607602A462046FFF7C4FD4FF43A
:103E90007A7007F07FDF40F2DD5702E00A2007F07A
:103EA00079DF63692046222B0ADDE3695B0607D5CB
:103EB00040F6270100220DF0A3DC0146204600E079
:103EC000002140F20C620DF03BDB0368334242D12B
:103ED000013FE3D13FE03A689AB963692046222B5B
:103EE00009DDE3695F0606D540F627010DF088DCA1
:103EF0000146204600E000214FF4C3620DF020DBB4
:103F0000026822EA06070123009320463B46414609
:103F10002A46FFF7ABF96369074337420CBF002617
:103F20000126222B20460ADDE369590607D540F613
:103F3000270100220DF064DC0146204600E000214C
:103F40004FF4C3620DF0FCDA414607602A46204672
:103F5000FFF761FD00E0012640F22D1702E00A2084
:103F600007F018DF2B6903F48053B3EB063F01D051
:103F7000013FF4D12046514603B0BDE8F04F0EF0AA
:103F8000899803B0BDE8F08FF0B589B004460D46BE
:103F900006AA07AB4FF400610EF08AD829462046E6
:103FA000FFF75AFE4FF47A760022B0FBF6F613467E
:103FB00002212046FFF79DFB00220746134600F032
:103FC0000F0503212046FFF794FB4FF680733B401B
:103FD000DF094FF4000320F07F42009303A804A9F7
:103FE000334603F09DDE05A80399049A182377430E
:103FF00003F0DADE05B92D60059A4FF400630093F3
:104000004FF4805303A804A9BA1893FBF5F303F007
:1040100087DE02A80399049A0C2303F0C5DE20462C
:104020000699079A0DF062DF029809B0F0BD10B54D
:1040300004460DF0E7DE01462046BDE81040FFF7DC
:10404000A3BF70B504461646FFF7F1FF6369054646
:10405000222B20460ADDE3695B0607D540F62701DF
:1040600000220DF0CDDB0146204600E000214FF498
:10407000CC620DF065DA04230360D6F864364FF4A1
:104080007A70DBB2B5FBF3F5684370BD70B50446DA
:104090000E460DF04FDA0021054620460DF0FADFFE
:1040A000314602462046FFF7CCFF29460646204609
:1040B0000DF0F0DF304670BDFFF7E8BF37B50446BE
:1040C000FFF7B5FF4FF400616A4601AB0546204695
:1040D0000DF0EEDF0022134620460421FFF709FB16
:1040E00000F47F40030A00B91B60B5FBF3F52046DE
:1040F0009DE806000DF0FADE28463EBD70B5044688
:104100000E460DF017DA0021054620460DF0C2DFFD
:10411000314602462046FFF77EFC2046FFF78CF82A
:1041200063690646222B20460ADDE3695A0607D555
:1041300040F6270100220DF063DB0146204600E037
:10414000002140F20C620DF0FBD9F378012111FA45
:1041500003F3026829461A420CBF002601262046B6
:104160000DF098DF304670BD70472DE9FF47836E34
:10417000002204460D460292039263B1D0F8CC109F
:1041800000EB8101D1F8D400216E884205D1606E28
:104190009847814602E0994600E0914620460DF09E
:1041A000C9D90021824620460DF074DF02A980465D
:1041B00003AA2046FFF70EF9029F00260396F7B1E7
:1041C0003B462046294642460096FFF74FF8636972
:1041D0003843222B029020460ADDE369590607D5B1
:1041E00040F6270132460DF00BDB0146204600E089
:1041F00000214FF4C3620DF0A3D9029B0360039E1C
:10420000FEB1002733462046294642460097FFF775
:104210002DF863693043222B039020460ADDE369C1
:104220005A0607D540F627013A460DF0E9DA01466D
:10423000204600E0002140F21C620DF081D9039B72
:104240000360294642462046FFF7E5FB20465146DB
:104250000DF020DFE36E5BB1D4F8CC2004EB8202DA
:10426000D2F8D410226E914202D1606E494698472E
:10427000BDE8FF8710B500220C4608F0B1D8A0B900
:104280000A4B1B688BB11A787AB1DA8994420CD840
:10429000184604F0E1D820B1054B1A6801321A60C3
:1042A00010BD044B1A6801321A6010BD44040000AE
:1042B000986101009C610100037E2BB14069D0F13F
:1042C000010038BF0020704701207047014B03EB0D
:1042D000C0007047A0610100014B03EBC0007047B4
:1042E000C061010070B50C46164609F0B3DD80B11F
:1042F00000252846FFF7F0FF03681BB980E850004F
:10430000184670BD0135EDB2042DF2D14FF0FF30EB
:1043100070BD4FF0FF3070BD6FF0160070477047F2
:104320007047000003682DE9F041C0F82031436870
:104330000022C0F824318368C0F82831C368C0F86F
:104340002C310369C0F830314369C0F834318369D6
:10435000C0F83831C369C0F83C3100F59073534E52
:104360001C69DF699559D3F814C07D194FEAB41759
:1043700087EAF42787EA7467ED199F6927EA04073B
:1043800004EA0C047C402C198D1811F802C0EF7857
:10439000043247EA0C6795F801C0AD7847EA0C474C
:1043A00047EA05256419DD61DD68402A2544DD60A2
:1043B00093E8A01087EA0C0808EA05080CEA070C45
:1043C00088EA0C074FEAB50C8CEA753C8CEAB555C7
:1043D0003D442C4443F8044DC1D100F1E00306F103
:1043E0003C0500F120071A6955F8044FD9695E6948
:1043F00061184FEAB21484EAF22484EA726409195B
:104400009C69D3F85CC024EA0204324062409E6B8F
:104410005C6A66444FEA744C8A188CEAF44C996DD5
:104420008CEA942434194FEAF11686EAB14686EAFA
:10443000D10161185218D961D9688918D96093E8F7
:10444000520084EA060C0CEA010C26408CEA0604B1
:104450004FEAB10686EA713686EAB15161188918C9
:1044600043F8041DBB42BED1036842685918436A31
:104470000160D31843608268836AD3188360C2687E
:10448000C36AD318C3600269036BD318036142691E
:10449000436BD31843618269836BD3188361C2690C
:1044A000C36BD318C361BDE8F08100BFC0540100E5
:1044B000F0B5034696100F46002510E057F8044B60
:1044C00001354FEA146C83F800C04FEA144C83F8AE
:1044D00001C04FEA142C83F802C0DC700433B542EB
:1044E000ECDB26EAE67312F0030200EB83000AD04D
:1044F00051F823401821002334FA01F5C554013343
:1045000008399342F8DBF0BD00487047645401005D
:10451000D0F8B43170B5D318934204460E46154610
:10452000C0F8B43104D2D0F8B0310133C0F8B031A2
:10453000D4F8AC21AB183F2B0AD8A21802F5B670FC
:1045400031462A4602F09EDED4F8AC315D1925E0F2
:10455000E2B1A0183146C2F1400200F5B67002F097
:1045600091DED4F8B831201D04F5B6719847D4F81F
:10457000AC31C3F14002403BB6185D1906E031464C
:10458000D4F8B831201D98474036403D3F2DF6DC29
:1045900004F5B67031462A4602F074DEC4F8AC5118
:1045A00070BD0000012910B5044640F8041B05D178
:1045B0000A4B0B49C4F8B831142204E0094B0A49EC
:1045C000C4F8B831202202F05DDE0020C4F8AC014E
:1045D000C4F8B001C4F8B40110BD00BF0D43000021
:1045E000C055010045400000A0540100F8B5044644
:1045F00000F5AA760D4600F58A772146304614224A
:1046000002F040DE30696649726841183068331F35
:1046100001EBF061F06820EA020CB06810408CEA0F
:104620000000091846F8041C687895F800C00004DA
:1046300040EA0C6095F803C04FEAB20240EA0C0071
:1046400095F802C0043540EA0C2041189F423061C1
:1046500046F8041C72601E46D4D304F58275306996
:104660004F497268411853F80409F76801EBF0618B
:10467000B06827EA0207104078400918376BF069E4
:104680004FEAB2027840B76C72607840376D78407C
:104690004FEAF0703061081846F8040C043EAB4253
:1046A000DDD804F1B4061A4615693E495068691808
:1046B00053F80459D76801EBF561956845407D4092
:1046C0004919176BD5694FEAB0007D40976C50606F
:1046D0007D40176D7D404FEAF57515614D1942F823
:1046E000045C043AB342DFD804F1640C1A4615693D
:1046F0002D49101D691853F80459C1C801EBF56123
:1047000086EA07050540374085EA07068919D56915
:10471000166B4FEAB0007540966C50607540166D90
:1047200075404FEAF57515614D1942F8045C043A7D
:104730006345DCD804F114061D691C4958686918E2
:104740001D68DF6801EBF5619D681A4645407D40B4
:1047500049191F6BDD694FEAB0007D409F6C5860BE
:104760007D401F6D7D404FEAF57549191D6143F885
:10477000041C043B9E42DFD3236859182160136850
:104780006168CB1863605368A168CB18A360E168C7
:104790009368CB18E3602169D368CB182361F8BD17
:1047A0009979825AA1EBD96EDCBC1B8FD6C162CA43
:1047B00030B5034685B00C4615466846194607F0E5
:1047C000B3DE20466946102DB4BF2A46102202F0FF
:1047D00059DD05B030BD07F0039F08B507F0ECDEEA
:1047E000002008BD38B504460D46FFF78DFE034690
:1047F000E4B10022226062600122AA4001680A42FC
:104800000AD100F114014069024204D103F12801E8
:104810009B6A1A420DD00B4604F1100063602560BC
:10482000A0609B6829469847002038BD6FF00100C2
:1048300038BD6FF0160038BD08B5436813B1DB68AA
:104840008068984708BD08B5436813B11B69806844
:10485000984708BD013806289ABF024B1856002019
:10486000704700BFD4550100F8B5044600680E46F5
:104870001546FFF7EFFF00284AD0D4F8AC2180217D
:10488000A31883F86C11531CA842B8BF0546382BF7
:10489000C4F8AC3111D9A01800F5B6700021C2F1EE
:1048A0003F02013002F072DDD4F8B831201D04F56A
:1048B000B67198470023C4F8AC31D4F8AC2100217C
:1048C000A01800F5B670C2F1380202F05FDDD4F82E
:1048D000B021D4F8B431D20042EA5372DB00C4F8FC
:1048E000B021C4F8B431082204F5D27004F5D871AF
:1048F000271DFFF7DDFD384604F5B671D4F8B83151
:104900009847304639462A46BDE8F840FFF7D0BD03
:10491000F8BD07280AD84FF0C243834004D44FF0B3
:10492000F053834004D401E04020704700207047DA
:10493000802070472DE9F0470C46B0B090469A466B
:104940000746002846D00846FFF784FF81462046E8
:10495000FFF7DFFF5045064607F1800513DA2146D1
:104960002846FFF73FFF414652462846FFF764FFBF
:10497000284620A94A46FFF766FF4E45B4BFB24617
:10498000CA460DF18008002309E018F8032082F0E0
:10499000360182F05C020DF80310FA5401335345DE
:1049A000F3DB2AEAEA7A07E036230DF80A305C23C3
:1049B00007F80A300AF1010AB245F5DB214628461C
:1049C000FFF710FF044638B9284669463246FFF71C
:1049D00033FF01E06FF00104204630B0BDE8F087FE
:1049E00010B18030FFF728BF70472DE9F843DDF89C
:1049F000208004461546994661B10E46002707E01F
:104A000032881AB120467168FFF7EAFF013708368D
:104A1000AF42F5DBB9F1000F09D0B8F1000F06D0B5
:104A2000204649464246BDE8F843FFF7D9BFBDE8F6
:104A3000F8832DE9F0478A4690B090460646002854
:104A40002BD0D0F8807000F180043846FFF761FF6A
:104A500081463846FFF7FEFE05462A46204669464F
:104A6000FFF7F1FE39462046FFF7BCFE20463146EF
:104A70004A46FFF7E1FE204669462A46FFF7DCFE7C
:104A8000204669462A46FFF7DEFE50466946454500
:104A9000B4BF2A46424602F0F5DB10B0BDE8F0870D
:104AA000F0B51446ADF5337D07460E461D4602A807
:104AB000234639463246FFF73DFF044660B9BA9BAC
:104AC00002A800932946B89AB99BFFF78EFF02A867
:104AD000BB99BC9AFFF7ADFF20460DF5337DF0BDC5
:104AE0002DE9F04F93B01E9F81468B4692461C469F
:104AF0001F9D002F68D0002D68D02BB1184602F002
:104B0000F1DC00F1010800E098464846FFF7A2FEFC
:104B1000064600285CD0431EEB1893FBF0F3FF2BF6
:104B2000079355DC4FF6FF73984551DC1D9A9A4266
:104B30004EDC2B4BADF83420002C08BF1C461C9BD0
:104B400001220E9312AB03F8012D1093032300935F
:104B50000023ADF82400ADF83C2001930293A84255
:104B6000D4BF049004955946484652460BAB0C946A
:104B70000A97ADF82C800397FFF792FF04460028B0
:104B80002AD14FF0020819E0AD1B002D0A9723DD52
:104B900004230093002301930293BF19484659460A
:104BA000524609AB8DF847800397B542D4BF0495B0
:104BB0000496FFF775FF08F1010860B9079A08F13C
:104BC000FF339342E0DD07E03C4605E02C4603E07E
:104BD0006FF0160400E00446204613B0BDE8F08FE5
:104BE00005EA89000B4B10B51A681C46904204D1A7
:104BF0005A68914201D1184610BD6369054A98422E
:104C000006D19069143281420CBF1046002010BDBD
:104C1000002010BD6C5D010073B504460CF0F6DE9B
:104C200014237422204640F60C410CF04FDE20463F
:104C3000012104220DF030D82046022104220DF07B
:104C40002BD801250021204640F61C624FF0FF338F
:104C500000950CF0A7DE112300930021204640F6BA
:104C600018624FF0FF330CF09DDE41F20213009307
:104C70000021204640F644424FF0FF330CF092DE14
:104C8000F32320464FF45E614FF0FF320CF01EDE3E
:104C90000023204640F6F8514FF0FF320CF016DEAC
:104CA0000023204640F6E4514FF0FF320CF00EDEB8
:104CB0000823204640F6EC514FF0FF320CF006DEA0
:104CC0000023204640F6E8514FF0FF320CF0FEDDA5
:104CD000DB2320464FF45D614FF0FF320CF0F6DD30
:104CE0000C220023204640F654410CF0EFDD284B07
:104CF00000210093204640F6BC524FF0FF330CF0E9
:104D000051DE244B29460093204640F6BC524FF01A
:104D1000FF330CF047DE204B02210093204640F683
:104D2000BC524FF0FF330CF03DDE2A462B462046A6
:104D300040F624610CF0CADD40F6FF7300930021B9
:104D4000164E204640F6B4524FF0FF330CF02ADEE8
:104D50000021204640F6B8524FF0FF3300960CF089
:104D600021DE4BF6982300932946204640F6B852A0
:104D70004FF0FF330CF016DE20464FF45C614FF02D
:104D8000FF32334602B0BDE870400CF09F9D00BF7B
:104D9000101112131415161718191A1B1032547605
:104DA00013B50C4602B949B1084913B10B681C4050
:104DB00003E00B681C4324EA030422400092002114
:104DC000702223460CF0BADB1CBD00BFA404000017
:104DD00013B5144642690A2A0FDD29B1012905D00D
:104DE00002290AD1842202E0782200E07C2200938A
:104DF000002123460CF0A2DB01E04FF0FF301CBD88
:104E00002DE9F04104460CF07BDF00210A460B46F9
:104E100007462046FFF7C4FF00210A460B46064618
:104E20002046FFF7D5FF0022054602212046134603
:104E3000FFF7CEFFD4F8788015E0D8F8083083B1BA
:104E400098F80420002AD8F80C200CBF28463846D1
:104E500000EA020012D03240904202D0D8F800108E
:104E60009847D8F81080B8F1000FE6D120464146A7
:104E70002A462B46BDE8F041FFF7AABF0028EDD136
:104E8000EFE74FF48030704738B500251D70D1F83A
:104E9000CC304FF4006113602A4604460DF0ECD884
:104EA000054638B1D0F8E031DA0103D420460121BB
:104EB0000DF0BCDC284638BD73B504460DF02AD889
:104EC00018B920460DF0D2D860B3204621466A4674
:104ED0000DF10703FFF7D8FF0646C0B140F22D15CC
:104EE00002E00A2006F056DFD6F8D431180706D4BF
:104EF000013DF6D103E00A2006F04CDF01E040F26C
:104F00002D15D6F8D431590701D5013DF3D12046EE
:104F100000210DF08BDC9DF807301BB9204600996D
:104F20000DF0B8D87CBD10B5044607F0CDD82046AA
:104F3000FFF7C2FF012010BDF0B585B004460D4655
:104F400017460DF093D8002800F09480A66E6EB13D
:104F5000D4F8CC3004EB8303D3F8D420236E9A42E8
:104F600003D1606EB047064600E000262046214689
:104F700002AA0DF10F03FFF787FF002863D0082F67
:104F800061D8DFE807F005141C2735404A550D00AD
:104F90000095204600214FF49C724FF0FF334EE005
:104FA0000021009120464FF49C720B4647E04FF0E1
:104FB000FF330093204600214FF49A723FE0002116
:104FC00020464FF4EC720B4600910CF0B7DA00F07B
:104FD000010539E025B1202300932046002103E09C
:104FE00002230093204629464FF4E872222326E04C
:104FF000002120464FF49A720B4600910CF09EDA85
:10500000C0F3C02520E0002120464FF4E0720B469B
:1050100000910CF093DAC5B216E0002120464FF45F
:105020009A720B4600910CF089DAC0F340250BE030
:10503000EDB20095204600214FF4E072FF230CF002
:105040007DDA054600E001259DF80F301BB92046AA
:1050500002990DF01FD8E36E6BB1D4F8CC2004EBAD
:105060008202D2F8D410226E914204D1606E314691
:10507000984700E00546284605B0F0BD0048704757
:10508000C05D01000020704710B50C4641B18B682F
:1050900023B9C06F09680EF029DBA060A06810BDBD
:1050A000C06F10BD1FB5084A03460092074A084664
:1050B0000192074A0749126802921A68064B02F0E9
:1050C000D5DB05B000BD00BF14560100403901001A
:1050D00090600100E55501000856010008B1D0F8C4
:1050E00088007047642910DC632921DA4A291FD01F
:1050F00005DC07291FDB08291ADD3C2912E05029AD
:1051000016D018DB5C39032911E0C32904DCC2295D
:105110000EDAA83902290AE0B1F5847F08D003DC51
:10512000B1F5807F07D103E0A1F58971012902D88B
:105130006FF0160070470020704700207047C88845
:1051400010F0080018BF6FF0160070474A6810B5DD
:1051500093424C8829DBE30603D503681B7E002BB2
:1051600026D1210703D503681B7E002B23D0A2067E
:1051700002D5437E002B21D0630722D414F0030311
:1051800022D002994CF05EDE00281FD0E10702D544
:105190008379002B1DD114F002041DD08379002BDC
:1051A0000CBF6FF00500002010BD6FF0010010BDB6
:1051B0006FF0040010BD6FF0030010BD6FF00A0027
:1051C00010BD6FF0160010BD184610BD6FF01D0029
:1051D00010BD6FF0060010BD204610BD37B5054666
:1051E000900723D58C6A0CB3A1682269636809050E
:1051F000C3F30043117A44BF43F00203DBB211B1A1
:10520000D2F8080101E0D2F804017F228DE80C00F9
:105210000022383004F13C01134675F081DB28464A
:10522000214603B0BDE830407CF0E69F03B030BDBE
:105230002DE9F04F87B000230F4610AC1599049369
:1052400005938046934694E87002DDF850A04CF038
:10525000F9DDB7F90630002B1ADA1BF0010FB98817
:105260003A890CD04900CDF800900196CDF808900D
:10527000CDF80CA0D8F810000131334605E08DE8D8
:105280006006D8F810004900234607F0B3FD0FE090
:10529000032D0BD9042204A8214601F0F3DF072DCA
:1052A00004D905A8211D042201F0ECDF6FF01600DF
:1052B00007B0BDE8F08F000038B50C46054608463B
:1052C000484902F0D3DA4849204602F0CFDA47498C
:1052D000204602F0CBDA4649204602F0C7DA4549BB
:1052E000204602F0C3DA4449204602F0BFDA2046E5
:1052F000424902F0BBDAD5F8340137F043DA20B97D
:10530000D5F8380139F0DEDA18B120463C4902F010
:10531000ADDAD5F8340137F035DA18B1204639491D
:1053200002F0A4DAD5F8380139F0CCDA18B1204609
:10533000354902F09BDAD5F830013AF001DC18B1BA
:105340002046324902F092DAD5F8300105F0ACF986
:1053500018B120462E4902F089DA20462D4902F084
:1053600085DAD5F84C0165F04FDF18B120462A499F
:1053700002F07CDA2B6893F83B301BB120462749BA
:1053800002F074DA2649204602F070DA25492046F8
:1053900002F06CDA2B6A186909F020FC820707D545
:1053A0002149204602F062DA2046204902F05EDA06
:1053B00020461F4902F05ADA20461E4902F056DA0A
:1053C00020461D4902F052DA20461C4902F04EDA0E
:1053D00020461B4902F04ADA1A492046BDE8384007
:1053E00002F0449A1D560100215601002656010084
:1053F0002B560100345601003D5601004156010074
:10540000465601004D5601005756010061560100F5
:105410006A5601007356010082560100875601004A
:105420008E56010095560100A1560100AA560100B2
:10543000B7560100BC560100C6560100CB5601000C
:10544000D0560100D856010030B585B005466846F3
:105450000C4602F0F5D928466946FFF72DFF204695
:1054600005B030BD2DE9F04F03F00103A9B00446AB
:105470001493D4F87C3410691B680E46C358D0F8D6
:1054800058131B7891460F93D4F88034B2681B6888
:105490001991C35808901B78099215931388606876
:1054A0000B9303F00C039B08022B08BF0B9913937B
:1054B0000B9A0CBFC1F3C0130023DBB21A9302F4A2
:1054C0004073A3F540756B4243EB050331461C93D3
:1054D000379F03F08DDA369B04300E9083B11B7A30
:1054E0000B2B07D1236893F8AD304BB136988379F5
:1054F000072B05D836990E9A91F90F30D2180E92D3
:10550000D4F8B031002B2DDA369B03B31B7A022B73
:105510001FD194F8B022F2B90898036D13F0080374
:105520001CD136998A792168D1F8B8108A4217D2ED
:10553000032A15D90B2A13D8B269900010D4339AD4
:10554000012A0FD10E9B012008330E9304E0369AF6
:1055500004E0002304E000200C9005E00C9203E03E
:105560000C9301E000210C91B568B389AA1F763332
:10557000A5F176001D92B38100217022B0601890D1
:1055800001F004DFB38BD90402D4B269520502D50D
:105590001B051B0D20E0D9F80420A04B1340BBB124
:1055A0000B9901F0FC03882B12D1099A1379D807C3
:1055B0000ED43398F289411E02F007023298583215
:1055C00009EB42028842D38806D1591CD18003E0FE
:1055D0001399012906D111E0139801280ED000215A
:1055E000079102E010220792002332981B019BB220
:1055F00000F00F0209991343CB8201E000220792C9
:10560000099BA068DA8AB38B23F47E6323F01F031F
:1056100043EA1213B38314F003DA010703D5B38B03
:1056200043F40053B3833498042808D120460899E2
:1056300035F82A2C14F080DEADF8980019E0329984
:10564000339801F00F02B4F85A33411E329842EAFF
:105650000312884292B202D10133A4F85A3334992A
:10566000520147F6E073134001F007021343ADF80F
:10567000983099F8D7303BB90B9A02F0FC03802B95
:1056800002D0089883791BB9079941F0200107914E
:10569000634B3B40002B40F0828007F04072B2F138
:1056A000807F00F08180139A012A30D9B369DA062D
:1056B0002DD4002B2BDB96F91F30002B27DB226A21
:1056C000574BD2F8488008EA030323B908F0407327
:1056D000B3F1807F03D109980379DF0766D4D2F84C
:1056E00044804F4B08EA030323B908F04073B3F139
:1056F000807F04D109990B7913F0010359D0099ADD
:105700001379D80703D4D9F80830190705D599F8C3
:10571000407007F07F07B84649E002238DF88630D5
:1057200027AB0093D4F85C011FAB494626AA7CF056
:1057300053DD0B98DDF87C8000F0FC03482B209FA4
:1057400001D0C82B0BD14146089800222AF0F4DE84
:1057500099F84070804607F07F07002308E0B3699E
:10576000329943F00063B361D1F1010338BF0023E4
:10577000BDF89C20D20703D5B26942F40052B26151
:10578000226892F8E120BAB1D4F8F8064946BDF88B
:10579000982005937CF0D4DA059B12900DE000224E
:1057A000B8461292134608E0B84603E04746002385
:1057B00000E04746129300E012922268D4F8840475
:1057C00092F84F2090F80CB012F0030200F09C8188
:1057D0008278012A09D9216A91F94D10A1F1010EAF
:1057E000DEF1000141EB0E0100E00021012A5FFA29
:1057F00081FA17D9226A92F94D20013212D1D9F8D3
:10580000042012F080420ED00E300221059302F0E7
:10581000E7DC021C18BF0122059B04E040000100E8
:10582000FF0000C0002218F0407FD0B25FFA88F27B
:1058300007D01F2A02D9202A07D0553A072A04D9AF
:105840001CE0A0498A56002A18DAB8F1000F15DBCF
:1058500028F4801828F4407818F0407209D0BAF182
:10586000000F03D1B2F1807F03D110B148F480184A
:1058700004E0BBF1010F08BF48F4807817F0407FC7
:10588000FAB207D01F2A02D9202A07D0553A072A90
:1058900004D91BE08B498A56002A17DA002F15DB42
:1058A00027F4801727F4407717F0407209D0BAF137
:1058B000000F03D1B2F1807F03D110B147F48017FC
:1058C00004E0BBF1010F08BF47F48077B4F8582417
:1058D00002F46052B2F5C05F2CD118F4E0221FD15F
:1058E00018F0407F17D0D9F80420120313D522688E
:1058F00092F83B2092B1089882797AB1D0F80821C9
:10590000528E02F46052B2F5C05F0CBF4FF4003209
:105910004FF4803204E04FF4803201E04FF4003263
:1059200018F0407F13D05FFA88F1202908BF4FF4A8
:1059300000320CE05FFA88F2F9B2202A08BF4FF07B
:105940008078202908BF4FF080774FF4803227F409
:10595000E02A17F0407F28F4E02848EA020818BF40
:105960004AEA020A226A08BF4AF4803A516C564A4F
:105970000A40002A53D101F04071B1F1807F4ED02E
:1059800018F0407F94F81C2204D0012A02D148F478
:10599000000802E00AB928F400081AF0407F94F8E1
:1059A0001C2205D0012A03D14AF4000A00F009BEE6
:1059B000002A40F006862AF4000A00F002BED9F858
:1059C0000410C8032BD5D9F80810090627D50132D1
:1059D00025D118F0407F0FD05FFA88F2A2F157016D
:1059E000012909D9632A07D0642A05D0652A03D082
:1059F000662A18BF48F480081AF0407F0FD05FFA7B
:105A00008AF2A2F15701012909D9632A07D0642A31
:105A100005D0652A03D0662A18BF4AF4800A2046BA
:105A2000494605931AF060DC18F04072059B45D09A
:105A30001599022908D108F4E02BABF50032D2F118
:105A4000000B4BEB020B01E04FF0000B5FFA88F20A
:105A50001F2A04D8072A94BF002101210AE0202A26
:105A600006D0A2F15501072994BF0021012100E0D1
:105A70000021C9B239B199F8FE1021B199F8FF108F
:105A8000003118BF012118F4000F11911ED01F2AF8
:105A900004D8072A8CBF0022012209E0202A05D061
:105AA000553A072A8CBF0022012200E00122D2B21F
:105AB000002A0CBF024604220D9208E00D92934684
:105AC000119204E058168900FF0000C00D901AF0F2
:105AD000407226D01AF4000F25D05FFA8AF21F2AEE
:105AE00004D8072A8CBF0022012209E0202A05D011
:105AF000553A072A8CBF0022012200E00122D2B2CF
:105B0000002A18BF04200EE028F4E02827F4E02A39
:105B100048F480384AF4803A10920D9293461192DC
:105B200002E0109200E0109093B1089A3398D2F8F6
:105B3000301102EBC103C2B2C3F838210131089A17
:105B400001F03F01C3F83481C2F83011C9F820A236
:105B500018F0407703D15FFA88F31B9303E04046C7
:105B600074F058DE1B901398022800D088B9B4F85E
:105B700068340E99994202DCB3695B010CD5099A2D
:105B80001198137903F00103002B08BF012017902F
:105B900004E01199179101E0119A1792236A597D37
:105BA00041B10F9B33B12FB9884A5FFA88F3D356BE
:105BB000002B07DB236893F84F30980727D037B3C3
:105BC000159820B3339A012A0ED90F9B002B0CBFD6
:105BD0004FF0300A4FF0160AB3694AF4803A23F0C6
:105BE0000063B361D04612E089B10F9878B167B90C
:105BF00008F07F03022B0AD0042B08D00B2B06D011
:105C0000162B18BF4FF0010B01E04FF0010B18F0FD
:105C100040710F911AD108F07F03162B16D86C4AE9
:105C20009A4013D5149A62B15FFA88F3022B0BD015
:105C3000D9F8103093F92C3113F1FF3318BF012339
:105C400000E0149B0D9301E00F980D901AF0407145
:105C500016911BD10AF07F03162B17D85C4A9A4085
:105C600014D5149A6AB15FFA8AF3022B0CD0D9F8D2
:105C7000103093F92C2112F1FF3218BF012210923B
:105C800004E0169B109301E0169810901399D9F830
:105C90000430022908BFC9F8588113F480334AD070
:105CA00094F80D32002B46D094F81132002B42D0DC
:105CB000159A032A30D00F9B4BB908F07F03022BB3
:105CC0002CD0042B2CD00B2B2DD0162B2ED009989A
:105CD000037913F001032BD10B9901F0FC02882A00
:105CE00029D1349A032A26D8B3691C9843F48053E7
:105CF000B361079B099900280CBF18221E2243F4A8
:105D0000A04307938B5A23F060031B041B0C43F042
:105D100020038B52012207E000230CE00F9808E0DB
:105D20000F990A9108E00F9A0A9205E00F9B02E092
:105D300000200A9000E00A931D99204600910E9AD7
:105D400041460B9B20F08CD922AF204651460E9A3B
:105D50000B9B009720F084D90622A5F1400039461C
:105D600001F090DA169A62B90AF07F03162B08D870
:105D7000174A9A4005D50E9B05F83C3C1B0A05F8CE
:105D80003B3CB3690F995A0512D591B1369A22B1AD
:105D9000127A042A01D00B2A1CD143F40063B361A8
:105DA000179894F8DA32002B18BF0120179011E0F1
:105DB00081B9064A5FFA88F3D356002B0ADA15F840
:105DC000063C03F00F03149307E000BF5816890048
:105DD0000002102815F8062C14920B9BA42B14D04B
:105DE00009980379DB0710D40A9981B9B369204671
:105DF0005F05414602D517F021DD03E00D9A359B82
:105E000020F008D9099A508014E00A9B53B141460A
:105E100020460D9A40F62A131FF0DCDE099980B265
:105E2000023048800B9AA42A04D10998438825F8A7
:105E30003A3C19E009990B79D90701D40A9A2AB199
:105E4000002305F83A3C05F8393C0DE0B3692046DB
:105E50005A05514602D517F0F1DC03E0109A359B44
:105E600020F0D8D825F83A0CB269930509D5B38C3F
:105E700025F8343CF38C25F8323C079B43F400535F
:105E80000793329818B9079941F0080107910998CA
:105E90000379DF0712D4D00410D494F810320BB178
:105EA00051060BD4520505D41A9919B1199A92F8D2
:105EB00028301BB9079B43F001030793924B34989A
:105EC0001399185C022915901CD1349A032A19D809
:105ED00094F80D32B3B11B9B042B13D9D4F83401C1
:105EE00036F062DA70B91998159900EB41039B8B73
:105EF00013B1B3695B0505D5119A1AB9079B43F431
:105F000080530793236A186966F018DC00F4605028
:105F1000B0F5C05F03D1079840F4807007900C99EA
:105F200019B1079A42F400420792079B25F8763C84
:105F3000369810B394F8B03213BB08990A6D12F07A
:105F4000080221D1037A0B2B06D1236893F8AD30D8
:105F5000D3B18379072B14D8369A93792268D2F873
:105F6000B82093420FD2B26997000FD43698027BC3
:105F700002F0070242EA031203E03699079107E0B4
:105F80000022079204E00023079301E0002007901D
:105F900010994B1EDBB2012B04D8079A42F4005330
:105FA0009BB20793A5F172000999022201F06AD908
:105FB000002305F8703C05F86F3C05F84A3C05F8ED
:105FC000493C369B002B2FD094F8B032002B2BD1BC
:105FD0000898036D180727D436990B7A0B2B06D136
:105FE000236893F8AD30FBB18B79072B1CD8369B17
:105FF0009A792368D3F8B8309A4215D2B3699900D8
:1060000012D41C9818B9099901F1180202E0099BF1
:1060100003F11E021A9800B10232002300932046B9
:106020001899369B2EF078DC099906220431A5F1E7
:106030005000139101F026D9BDF8983025F82A3C7C
:10604000D4F84401089960F0E7DC35F8303C80B2C0
:1060500043EA002325F8303C002305F8283C05F8E6
:10606000273C05F8263C05F8253C05F8243C05F8B6
:10607000233C05F8223C05F8213C05F8203C05F8B6
:106080001F3C179A1AB9BBF1000F01D1E1E09B4602
:106090000022414608982AF04FDA00220690514625
:1060A00008982AF049DA069B089013F04073189379
:1060B00006D10699154BC8B21B56002B03DA14E023
:1060C000069874F0A7DB023818BF012070B1D9F828
:1060D000103093F92C31012B0AD0079A42F48043F7
:1060E0009BB2079301230C9304E018980C9001E0F5
:1060F00000210C91089B13F0407209D1D8B2034BD8
:106100001B56002B07DA1DE06CE188005816890049
:10611000089874F07FDB023818BF012078B1D9F8F5
:10612000103093F92C31012B0BD0079801216FEA25
:1061300040436FEA53439BB20793119103E01190E0
:1061400001E00022119235F8763CBBF1000F02D03D
:1061500043F4006301E043F0060325F8763CBBF10D
:10616000000F0CBF4FF0140C4FF00E0CA5F11E03E6
:1061700062460093204606990B9BCDF814C01FF091
:106180006FDFDDF814C024AF62460B9B20460899F0
:1061900000971FF065DF39460622A5F1480001F09F
:1061A00071D80C980D990E9AA5F118030B930090D5
:1061B0000191029200275946069A434620460397CA
:1061C0001FF06CDF25F8160C119B10980E990093A8
:1061D0000190029120465946089A534603971FF0B2
:1061E0005DDF25F8420CA5F11400BBF1000F09D0CA
:1061F0006FF03B0305F8183C05F8177C099A02F18B
:106200000A010EE06FF04B0305F8183C05F817BCC7
:106210001399062201F036D8099BA5F10E0003F16F
:106220000A01062201F02ED81498189A81B252B9A8
:1062300006989F4AC3B2D356002B04DA15F81E3CC9
:1062400003F00F0301E015F81E3C1B0219431491E3
:106250001FE059460622A5F11E0001F097D85946C5
:106260001022A5F1180001F091D8A5F14800594677
:10627000062201F08BD805F842BC05F841BCCDF8E8
:1062800020B0CDF818B0CDF82CB0CDF844B0CDF892
:1062900030B0B3695A050FD50F9969B128AB002208
:1062A00023F8022D0093D4F83401494642460E9B50
:1062B00036F096D805F8430C079B25F8743C1498E3
:1062C00025F8640C1699B1F1807F0BD031B90AF032
:1062D0007F03162B02D8774A9A4001D4012002E0AE
:1062E000169800E00220069A80B202F04073B3F1E3
:1062F000807F0BD033B902F07F02162A02D86D4995
:10630000914000D401239B009BB200E00823089930
:10631000184301F04073B3F1807F0BD033B901F023
:106320007F02162A02D86349914000D401231B0141
:106330009FB200E02027236A0743186966F0FED960
:10634000C0B247EA002725F8627C0F9AB2F1807F3D
:106350000CD032B908F07F03162B02D8554A9A4068
:1063600001D4012300E00F9B9BB200E002230D98B3
:10637000ADF89A30421ED2B2012A09D843F0100378
:10638000ADF89A302368D3F888309A6901329A615F
:1063900041462046BDF89A707EF080DCB369074321
:1063A000B9B21B01ADF89A100ED5236893F8E1300D
:1063B00053B1236A186967F099DB236A0DF19A01DA
:1063C0001869129A67F0ACDBBDF89A30414625F89F
:1063D0006E3CB4F85824204627F09AD925F86C0C66
:1063E00051462046B4F8582427F092D925F86A0C73
:1063F000179911B9BBF1000F0FD00699B4F85824C2
:10640000204627F085D925F8680C08992046B4F86D
:10641000582427F07DD925F8660C0F9A4AB10D9BB8
